{
  "_format": "hh-sol-artifact-1",
  "contractName": "AstroPrediction",
  "sourceName": "contracts/AstroPrediction.sol",
  "abi": [
    {
      "anonymous": false,
      "inputs": [
        {
          "indexed": false,
          "internalType": "uint256",
          "name": "marketId",
          "type": "uint256"
        },
        {
          "indexed": false,
          "internalType": "address",
          "name": "user",
          "type": "address"
        },
        {
          "indexed": false,
          "internalType": "bool",
          "name": "betYes",
          "type": "bool"
        },
        {
          "indexed": false,
          "internalType": "uint256",
          "name": "amount",
          "type": "uint256"
        }
      ],
      "name": "BetPlaced",
      "type": "event"
    },
    {
      "anonymous": false,
      "inputs": [
        {
          "indexed": false,
          "internalType": "uint256",
          "name": "id",
          "type": "uint256"
        },
        {
          "indexed": false,
          "internalType": "string",
          "name": "question",
          "type": "string"
        },
        {
          "indexed": false,
          "internalType": "string",
          "name": "aiSignal",
          "type": "string"
        }
      ],
      "name": "MarketCreated",
      "type": "event"
    },
    {
      "anonymous": false,
      "inputs": [
        {
          "indexed": false,
          "internalType": "uint256",
          "name": "marketId",
          "type": "uint256"
        },
        {
          "indexed": false,
          "internalType": "bool",
          "name": "outcome",
          "type": "bool"
        }
      ],
      "name": "MarketResolved",
      "type": "event"
    },
    {
      "inputs": [
        {
          "internalType": "uint256",
          "name": "_marketId",
          "type": "uint256"
        }
      ],
      "name": "claimWinnings",
      "outputs": [],
      "stateMutability": "nonpayable",
      "type": "function"
    },
    {
      "inputs": [
        {
          "internalType": "string",
          "name": "_question",
          "type": "string"
        },
        {
          "internalType": "string",
          "name": "_aiPredictionSignal",
          "type": "string"
        }
      ],
      "name": "createMarket",
      "outputs": [],
      "stateMutability": "nonpayable",
      "type": "function"
    },
    {
      "inputs": [
        {
          "internalType": "uint256",
          "name": "",
          "type": "uint256"
        }
      ],
      "name": "markets",
      "outputs": [
        {
          "internalType": "uint256",
          "name": "id",
          "type": "uint256"
        },
        {
          "internalType": "string",
          "name": "question",
          "type": "string"
        },
        {
          "internalType": "string",
          "name": "aiPredictionSignal",
          "type": "string"
        },
        {
          "internalType": "uint256",
          "name": "totalYesPool",
          "type": "uint256"
        },
        {
          "internalType": "uint256",
          "name": "totalNoPool",
          "type": "uint256"
        },
        {
          "internalType": "bool",
          "name": "isResolved",
          "type": "bool"
        },
        {
          "internalType": "bool",
          "name": "resultOutcome",
          "type": "bool"
        }
      ],
      "stateMutability": "view",
      "type": "function"
    },
    {
      "inputs": [],
      "name": "nextMarketId",
      "outputs": [
        {
          "internalType": "uint256",
          "name": "",
          "type": "uint256"
        }
      ],
      "stateMutability": "view",
      "type": "function"
    },
    {
      "inputs": [
        {
          "internalType": "uint256",
          "name": "",
          "type": "uint256"
        },
        {
          "internalType": "address",
          "name": "",
          "type": "address"
        }
      ],
      "name": "noBets",
      "outputs": [
        {
          "internalType": "uint256",
          "name": "",
          "type": "uint256"
        }
      ],
      "stateMutability": "view",
      "type": "function"
    },
    {
      "inputs": [
        {
          "internalType": "uint256",
          "name": "_marketId",
          "type": "uint256"
        },
        {
          "internalType": "bool",
          "name": "_betYes",
          "type": "bool"
        }
      ],
      "name": "placeBet",
      "outputs": [],
      "stateMutability": "payable",
      "type": "function"
    },
    {
      "inputs": [
        {
          "internalType": "uint256",
          "name": "_marketId",
          "type": "uint256"
        },
        {
          "internalType": "bool",
          "name": "_outcome",
          "type": "bool"
        }
      ],
      "name": "resolveMarket",
      "outputs": [],
      "stateMutability": "nonpayable",
      "type": "function"
    },
    {
      "inputs": [
        {
          "internalType": "uint256",
          "name": "",
          "type": "uint256"
        },
        {
          "internalType": "address",
          "name": "",
          "type": "address"
        }
      ],
      "name": "yesBets",
      "outputs": [
        {
          "internalType": "uint256",
          "name": "",
          "type": "uint256"
        }
      ],
      "stateMutability": "view",
      "type": "function"
    }
  ],
  "bytecode": "0x608060405234801561001057600080fd5b5061163b806100206000396000f3fe60806040526004361061007b5760003560e01c8063677bd9ff1161004e578063677bd9ff1461014e5780639ed9c74d14610177578063b1283e7714610193578063f39122a1146101d65761007b565b8063155e4b8214610080578063354c6199146100bd578063406ef2ef146100fa57806357bde44614610125575b600080fd5b34801561008c57600080fd5b506100a760048036038101906100a29190610b24565b6101ff565b6040516100b49190610b73565b60405180910390f35b3480156100c957600080fd5b506100e460048036038101906100df9190610b24565b610224565b6040516100f19190610b73565b60405180910390f35b34801561010657600080fd5b5061010f610249565b60405161011c9190610b73565b60405180910390f35b34801561013157600080fd5b5061014c60048036038101906101479190610bc6565b61024f565b005b34801561015a57600080fd5b5061017560048036038101906101709190610c06565b61032f565b005b610191600480360381019061018c9190610bc6565b6105dc565b005b34801561019f57600080fd5b506101ba60048036038101906101b59190610c06565b6107da565b6040516101cd9796959493929190610cd2565b60405180910390f35b3480156101e257600080fd5b506101fd60048036038101906101f89190610e84565b610946565b005b6003602052816000526040600020602052806000526040600020600091509150505481565b6002602052816000526040600020602052806000526040600020600091509150505481565b60005481565b60006001600084815260200190815260200160002090508060050160009054906101000a900460ff16156102b8576040517f08c379a00000000000000000000000000000000000000000000000000000000081526004016102af90610f48565b60405180910390fd5b60018160050160006101000a81548160ff021916908315150217905550818160050160016101000a81548160ff0219169083151502179055507f4927fe38919783250023d27e65a3e56b6b5c3e49364e51674a41ef08d62460d98383604051610322929190610f68565b60405180910390a1505050565b60006001600083815260200190815260200160002090508060050160009054906101000a900460ff16610397576040517f08c379a000000000000000000000000000000000000000000000000000000000815260040161038e90610fdd565b60405180910390fd5b6000806000836004015484600301546103b0919061102c565b90508360050160019054906101000a900460ff161561047e576002600086815260200190815260200160002060003373ffffffffffffffffffffffffffffffffffffffff1673ffffffffffffffffffffffffffffffffffffffff1681526020019081526020016000205492508360030154915060006002600087815260200190815260200160002060003373ffffffffffffffffffffffffffffffffffffffff1673ffffffffffffffffffffffffffffffffffffffff1681526020019081526020016000208190555061052f565b6003600086815260200190815260200160002060003373ffffffffffffffffffffffffffffffffffffffff1673ffffffffffffffffffffffffffffffffffffffff1681526020019081526020016000205492508360040154915060006003600087815260200190815260200160002060003373ffffffffffffffffffffffffffffffffffffffff1673ffffffffffffffffffffffffffffffffffffffff168152602001908152602001600020819055505b60008311610572576040517f08c379a0000000000000000000000000000000000000000000000000000000008152600401610569906110ac565b60405180910390fd5b600082828561058191906110cc565b61058b919061113d565b90503373ffffffffffffffffffffffffffffffffffffffff166108fc829081150290604051600060405180830381858888f193505050501580156105d3573d6000803e3d6000fd5b50505050505050565b60006001600084815260200190815260200160002090508060050160009054906101000a900460ff1615610645576040517f08c379a000000000000000000000000000000000000000000000000000000000815260040161063c906111ba565b60405180910390fd5b60003411610688576040517f08c379a000000000000000000000000000000000000000000000000000000000815260040161067f90611226565b60405180910390fd5b811561071557346002600085815260200190815260200160002060003373ffffffffffffffffffffffffffffffffffffffff1673ffffffffffffffffffffffffffffffffffffffff16815260200190815260200160002060008282546106ee919061102c565b9250508190555034816003016000828254610709919061102c565b92505081905550610798565b346003600085815260200190815260200160002060003373ffffffffffffffffffffffffffffffffffffffff1673ffffffffffffffffffffffffffffffffffffffff1681526020019081526020016000206000828254610775919061102c565b9250508190555034816004016000828254610790919061102c565b925050819055505b7f4af71b021e799c62c158bd54636ca8da2fa26115a21a2dc6efe486ec104fd15f833384346040516107cd9493929190611255565b60405180910390a1505050565b6001602052806000526040600020600091509050806000015490806001018054610803906112c9565b80601f016020809104026020016040519081016040528092919081815260200182805461082f906112c9565b801561087c5780601f106108515761010080835404028352916020019161087c565b820191906000526020600020905b81548152906001019060200180831161085f57829003601f168201915b505050505090806002018054610891906112c9565b80601f01602080910402602001604051908101604052809291908181526020018280546108bd906112c9565b801561090a5780601f106108df5761010080835404028352916020019161090a565b820191906000526020600020905b8154815290600101906020018083116108ed57829003601f168201915b5050505050908060030154908060040154908060050160009054906101000a900460ff16908060050160019054906101000a900460ff16905087565b6040518060e00160405280600054815260200183815260200182815260200160008152602001600081526020016000151581526020016000151581525060016000805481526020019081526020016000206000820151816000015560208201518160010190816109b691906114a6565b5060408201518160020190816109cc91906114a6565b50606082015181600301556080820151816004015560a08201518160050160006101000a81548160ff02191690831515021790555060c08201518160050160016101000a81548160ff0219169083151502179055509050507fb5961ec966fec8bc1ff4fe1d97399fe3107659d3f0c80af53c508ba651a3e5456000548383604051610a5993929190611578565b60405180910390a1600080815480929190610a73906115bd565b91905055505050565b6000604051905090565b600080fd5b600080fd5b6000819050919050565b610aa381610a90565b8114610aae57600080fd5b50565b600081359050610ac081610a9a565b92915050565b600073ffffffffffffffffffffffffffffffffffffffff82169050919050565b6000610af182610ac6565b9050919050565b610b0181610ae6565b8114610b0c57600080fd5b50565b600081359050610b1e81610af8565b92915050565b60008060408385031215610b3b57610b3a610a86565b5b6000610b4985828601610ab1565b9250506020610b5a85828601610b0f565b9150509250929050565b610b6d81610a90565b82525050565b6000602082019050610b886000830184610b64565b92915050565b60008115159050919050565b610ba381610b8e565b8114610bae57600080fd5b50565b600081359050610bc081610b9a565b92915050565b60008060408385031215610bdd57610bdc610a86565b5b6000610beb85828601610ab1565b9250506020610bfc85828601610bb1565b9150509250929050565b600060208284031215610c1c57610c1b610a86565b5b6000610c2a84828501610ab1565b91505092915050565b600081519050919050565b600082825260208201905092915050565b60005b83811015610c6d578082015181840152602081019050610c52565b60008484015250505050565b6000601f19601f8301169050919050565b6000610c9582610c33565b610c9f8185610c3e565b9350610caf818560208601610c4f565b610cb881610c79565b840191505092915050565b610ccc81610b8e565b82525050565b600060e082019050610ce7600083018a610b64565b8181036020830152610cf98189610c8a565b90508181036040830152610d0d8188610c8a565b9050610d1c6060830187610b64565b610d296080830186610b64565b610d3660a0830185610cc3565b610d4360c0830184610cc3565b98975050505050505050565b600080fd5b600080fd5b7f4e487b7100000000000000000000000000000000000000000000000000000000600052604160045260246000fd5b610d9182610c79565b810181811067ffffffffffffffff82111715610db057610daf610d59565b5b80604052505050565b6000610dc3610a7c565b9050610dcf8282610d88565b919050565b600067ffffffffffffffff821115610def57610dee610d59565b5b610df882610c79565b9050602081019050919050565b82818337600083830152505050565b6000610e27610e2284610dd4565b610db9565b905082815260208101848484011115610e4357610e42610d54565b5b610e4e848285610e05565b509392505050565b600082601f830112610e6b57610e6a610d4f565b5b8135610e7b848260208601610e14565b91505092915050565b60008060408385031215610e9b57610e9a610a86565b5b600083013567ffffffffffffffff811115610eb957610eb8610a8b565b5b610ec585828601610e56565b925050602083013567ffffffffffffffff811115610ee657610ee5610a8b565b5b610ef285828601610e56565b9150509250929050565b7f416c7265616479207265736f6c76656400000000000000000000000000000000600082015250565b6000610f32601083610c3e565b9150610f3d82610efc565b602082019050919050565b60006020820190508181036000830152610f6181610f25565b9050919050565b6000604082019050610f7d6000830185610b64565b610f8a6020830184610cc3565b9392505050565b7f4d61726b6574206e6f74207265736f6c76656400000000000000000000000000600082015250565b6000610fc7601383610c3e565b9150610fd282610f91565b602082019050919050565b60006020820190508181036000830152610ff681610fba565b9050919050565b7f4e487b7100000000000000000000000000000000000000000000000000000000600052601160045260246000fd5b600061103782610a90565b915061104283610a90565b925082820190508082111561105a57611059610ffd565b5b92915050565b7f4e6f2077696e6e696e6773000000000000000000000000000000000000000000600082015250565b6000611096600b83610c3e565b91506110a182611060565b602082019050919050565b600060208201905081810360008301526110c581611089565b9050919050565b60006110d782610a90565b91506110e283610a90565b92508282026110f081610a90565b9150828204841483151761110757611106610ffd565b5b5092915050565b7f4e487b7100000000000000000000000000000000000000000000000000000000600052601260045260246000fd5b600061114882610a90565b915061115383610a90565b9250826111635761116261110e565b5b828204905092915050565b7f4d61726b6574207265736f6c7665640000000000000000000000000000000000600082015250565b60006111a4600f83610c3e565b91506111af8261116e565b602082019050919050565b600060208201905081810360008301526111d381611197565b9050919050565b7f426574206d757374206265203e20300000000000000000000000000000000000600082015250565b6000611210600f83610c3e565b915061121b826111da565b602082019050919050565b6000602082019050818103600083015261123f81611203565b9050919050565b61124f81610ae6565b82525050565b600060808201905061126a6000830187610b64565b6112776020830186611246565b6112846040830185610cc3565b6112916060830184610b64565b95945050505050565b7f4e487b7100000000000000000000000000000000000000000000000000000000600052602260045260246000fd5b600060028204905060018216806112e157607f821691505b6020821081036112f4576112f361129a565b5b50919050565b60008190508160005260206000209050919050565b60006020601f8301049050919050565b600082821b905092915050565b60006008830261135c7fffffffffffffffffffffffffffffffffffffffffffffffffffffffffffffffff8261131f565b611366868361131f565b95508019841693508086168417925050509392505050565b6000819050919050565b60006113a361139e61139984610a90565b61137e565b610a90565b9050919050565b6000819050919050565b6113bd83611388565b6113d16113c9826113aa565b84845461132c565b825550505050565b600090565b6113e66113d9565b6113f18184846113b4565b505050565b5b818110156114155761140a6000826113de565b6001810190506113f7565b5050565b601f82111561145a5761142b816112fa565b6114348461130f565b81016020851015611443578190505b61145761144f8561130f565b8301826113f6565b50505b505050565b600082821c905092915050565b600061147d6000198460080261145f565b1980831691505092915050565b6000611496838361146c565b9150826002028217905092915050565b6114af82610c33565b67ffffffffffffffff8111156114c8576114c7610d59565b5b6114d282546112c9565b6114dd828285611419565b600060209050601f83116001811461151057600084156114fe578287015190505b611508858261148a565b865550611570565b601f19841661151e866112fa565b60005b8281101561154657848901518255600182019150602085019450602081019050611521565b86831015611563578489015161155f601f89168261146c565b8355505b6001600288020188555050505b505050505050565b600060608201905061158d6000830186610b64565b818103602083015261159f8185610c8a565b905081810360408301526115b38184610c8a565b9050949350505050565b60006115c882610a90565b91507fffffffffffffffffffffffffffffffffffffffffffffffffffffffffffffffff82036115fa576115f9610ffd565b5b60018201905091905056fea2646970667358221220f689866a02dbf01abfd9b17e102d332b3e07e60c6b406aef5733970fd1efaef764736f6c63430008180033",
  "linkReferences": {},
  "deployedLinkReferences": {}
}