{
  "_format": "hh-sol-artifact-1",
  "contractName": "AstroMarket",
  "sourceName": "contracts/AstroMarket.sol",
  "abi": [
    {
      "anonymous": false,
      "inputs": [
        {
          "indexed": true,
          "internalType": "address",
          "name": "astrologer",
          "type": "address"
        },
        {
          "indexed": false,
          "internalType": "string",
          "name": "name",
          "type": "string"
        },
        {
          "indexed": false,
          "internalType": "uint256",
          "name": "price",
          "type": "uint256"
        }
      ],
      "name": "AstrologerRegistered",
      "type": "event"
    },
    {
      "anonymous": false,
      "inputs": [
        {
          "indexed": true,
          "internalType": "address",
          "name": "user",
          "type": "address"
        },
        {
          "indexed": true,
          "internalType": "address",
          "name": "astrologer",
          "type": "address"
        },
        {
          "indexed": false,
          "internalType": "uint8",
          "name": "rating",
          "type": "uint8"
        }
      ],
      "name": "ReviewSubmitted",
      "type": "event"
    },
    {
      "anonymous": false,
      "inputs": [
        {
          "indexed": true,
          "internalType": "address",
          "name": "user",
          "type": "address"
        },
        {
          "indexed": true,
          "internalType": "address",
          "name": "astrologer",
          "type": "address"
        },
        {
          "indexed": false,
          "internalType": "uint256",
          "name": "sessionId",
          "type": "uint256"
        }
      ],
      "name": "SessionBooked",
      "type": "event"
    },
    {
      "inputs": [
        {
          "internalType": "uint256",
          "name": "",
          "type": "uint256"
        }
      ],
      "name": "astrologerAddresses",
      "outputs": [
        {
          "internalType": "address",
          "name": "",
          "type": "address"
        }
      ],
      "stateMutability": "view",
      "type": "function"
    },
    {
      "inputs": [
        {
          "internalType": "address",
          "name": "",
          "type": "address"
        }
      ],
      "name": "astrologers",
      "outputs": [
        {
          "internalType": "address",
          "name": "wallet",
          "type": "address"
        },
        {
          "internalType": "string",
          "name": "name",
          "type": "string"
        },
        {
          "internalType": "uint256",
          "name": "price",
          "type": "uint256"
        },
        {
          "internalType": "uint256",
          "name": "ratingCount",
          "type": "uint256"
        },
        {
          "internalType": "uint256",
          "name": "totalRating",
          "type": "uint256"
        },
        {
          "internalType": "bool",
          "name": "isActive",
          "type": "bool"
        }
      ],
      "stateMutability": "view",
      "type": "function"
    },
    {
      "inputs": [
        {
          "internalType": "address",
          "name": "_astrologer",
          "type": "address"
        }
      ],
      "name": "bookSession",
      "outputs": [],
      "stateMutability": "payable",
      "type": "function"
    },
    {
      "inputs": [],
      "name": "getAllAstrologers",
      "outputs": [
        {
          "components": [
            {
              "internalType": "address",
              "name": "wallet",
              "type": "address"
            },
            {
              "internalType": "string",
              "name": "name",
              "type": "string"
            },
            {
              "internalType": "uint256",
              "name": "price",
              "type": "uint256"
            },
            {
              "internalType": "uint256",
              "name": "ratingCount",
              "type": "uint256"
            },
            {
              "internalType": "uint256",
              "name": "totalRating",
              "type": "uint256"
            },
            {
              "internalType": "bool",
              "name": "isActive",
              "type": "bool"
            }
          ],
          "internalType": "struct AstroMarket.Astrologer[]",
          "name": "",
          "type": "tuple[]"
        }
      ],
      "stateMutability": "view",
      "type": "function"
    },
    {
      "inputs": [
        {
          "internalType": "string",
          "name": "_name",
          "type": "string"
        },
        {
          "internalType": "uint256",
          "name": "_priceInWei",
          "type": "uint256"
        }
      ],
      "name": "registerAstrologer",
      "outputs": [],
      "stateMutability": "nonpayable",
      "type": "function"
    },
    {
      "inputs": [
        {
          "internalType": "uint256",
          "name": "",
          "type": "uint256"
        }
      ],
      "name": "sessions",
      "outputs": [
        {
          "internalType": "address",
          "name": "user",
          "type": "address"
        },
        {
          "internalType": "address",
          "name": "astrologer",
          "type": "address"
        },
        {
          "internalType": "uint256",
          "name": "timestamp",
          "type": "uint256"
        },
        {
          "internalType": "bool",
          "name": "isCompleted",
          "type": "bool"
        }
      ],
      "stateMutability": "view",
      "type": "function"
    },
    {
      "inputs": [
        {
          "internalType": "address",
          "name": "_astrologer",
          "type": "address"
        },
        {
          "internalType": "uint8",
          "name": "_rating",
          "type": "uint8"
        }
      ],
      "name": "submitReview",
      "outputs": [],
      "stateMutability": "nonpayable",
      "type": "function"
    }
  ],
  "bytecode": "0x608060405234801561001057600080fd5b50611a7e806100206000396000f3fe6080604052600436106100705760003560e01c806383c4b7a31161004e57806383c4b7a31461011d57806397a039d51461015d578063c234c4fa14610188578063fe1d59ff146101b157610070565b806315c78932146100755780633277d58a146100b75780633c82a9fe146100f4575b600080fd5b34801561008157600080fd5b5061009c60048036038101906100979190610e28565b6101cd565b6040516100ae96959493929190610f28565b60405180910390f35b3480156100c357600080fd5b506100de60048036038101906100d99190610fbc565b6102be565b6040516100eb9190610fe9565b60405180910390f35b34801561010057600080fd5b5061011b6004803603810190610116919061103d565b6102fd565b005b34801561012957600080fd5b50610144600480360381019061013f9190610fbc565b610438565b604051610154949392919061107d565b60405180910390f35b34801561016957600080fd5b506101726104c5565b60405161017f9190611284565b60405180910390f35b34801561019457600080fd5b506101af60048036038101906101aa91906113db565b61070f565b005b6101cb60048036038101906101c69190610e28565b610979565b005b60006020528060005260406000206000915090508060000160009054906101000a900473ffffffffffffffffffffffffffffffffffffffff169080600101805461021690611466565b80601f016020809104026020016040519081016040528092919081815260200182805461024290611466565b801561028f5780601f106102645761010080835404028352916020019161028f565b820191906000526020600020905b81548152906001019060200180831161027257829003601f168201915b5050505050908060020154908060030154908060040154908060050160009054906101000a900460ff16905086565b600181815481106102ce57600080fd5b906000526020600020016000915054906101000a900473ffffffffffffffffffffffffffffffffffffffff1681565b60018160ff1610158015610315575060058160ff1611155b610354576040517f08c379a000000000000000000000000000000000000000000000000000000000815260040161034b906114e3565b60405180910390fd5b60008060008473ffffffffffffffffffffffffffffffffffffffff1673ffffffffffffffffffffffffffffffffffffffff16815260200190815260200160002090508060030160008154809291906103ab90611532565b91905055508160ff168160040160008282546103c7919061157a565b925050819055508273ffffffffffffffffffffffffffffffffffffffff163373ffffffffffffffffffffffffffffffffffffffff167f71fc513821ecba20b382cf39c0ece746c22cec23ca4cf79bc5822461e33d13f58460405161042b91906115bd565b60405180910390a3505050565b6002818154811061044857600080fd5b90600052602060002090600402016000915090508060000160009054906101000a900473ffffffffffffffffffffffffffffffffffffffff16908060010160009054906101000a900473ffffffffffffffffffffffffffffffffffffffff16908060020154908060030160009054906101000a900460ff16905084565b6060600060018054905067ffffffffffffffff8111156104e8576104e76112b0565b5b60405190808252806020026020018201604052801561052157816020015b61050e610d68565b8152602001906001900390816105065790505b50905060005b600180549050811015610707576000806001838154811061054b5761054a6115d8565b5b9060005260206000200160009054906101000a900473ffffffffffffffffffffffffffffffffffffffff1673ffffffffffffffffffffffffffffffffffffffff1673ffffffffffffffffffffffffffffffffffffffff1681526020019081526020016000206040518060c00160405290816000820160009054906101000a900473ffffffffffffffffffffffffffffffffffffffff1673ffffffffffffffffffffffffffffffffffffffff1673ffffffffffffffffffffffffffffffffffffffff16815260200160018201805461062190611466565b80601f016020809104026020016040519081016040528092919081815260200182805461064d90611466565b801561069a5780601f1061066f5761010080835404028352916020019161069a565b820191906000526020600020905b81548152906001019060200180831161067d57829003601f168201915b505050505081526020016002820154815260200160038201548152602001600482015481526020016005820160009054906101000a900460ff1615151515815250508282815181106106ef576106ee6115d8565b5b60200260200101819052508080600101915050610527565b508091505090565b6000803373ffffffffffffffffffffffffffffffffffffffff1673ffffffffffffffffffffffffffffffffffffffff16815260200190815260200160002060050160009054906101000a900460ff161561079e576040517f08c379a000000000000000000000000000000000000000000000000000000000815260040161079590611653565b60405180910390fd5b6040518060c001604052803373ffffffffffffffffffffffffffffffffffffffff1681526020018381526020018281526020016000815260200160008152602001600115158152506000803373ffffffffffffffffffffffffffffffffffffffff1673ffffffffffffffffffffffffffffffffffffffff16815260200190815260200160002060008201518160000160006101000a81548173ffffffffffffffffffffffffffffffffffffffff021916908373ffffffffffffffffffffffffffffffffffffffff1602179055506020820151816001019081610880919061181f565b5060408201518160020155606082015181600301556080820151816004015560a08201518160050160006101000a81548160ff0219169083151502179055509050506001339080600181540180825580915050600190039060005260206000200160009091909190916101000a81548173ffffffffffffffffffffffffffffffffffffffff021916908373ffffffffffffffffffffffffffffffffffffffff1602179055503373ffffffffffffffffffffffffffffffffffffffff167ffe932ea9cf4bcbc8137aa00f7a05b899a3c17acf559513336abb748f8f18ccda838360405161096d9291906118f1565b60405180910390a25050565b60008060008373ffffffffffffffffffffffffffffffffffffffff1673ffffffffffffffffffffffffffffffffffffffff1681526020019081526020016000206040518060c00160405290816000820160009054906101000a900473ffffffffffffffffffffffffffffffffffffffff1673ffffffffffffffffffffffffffffffffffffffff1673ffffffffffffffffffffffffffffffffffffffff168152602001600182018054610a2a90611466565b80601f0160208091040260200160405190810160405280929190818152602001828054610a5690611466565b8015610aa35780601f10610a7857610100808354040283529160200191610aa3565b820191906000526020600020905b815481529060010190602001808311610a8657829003601f168201915b505050505081526020016002820154815260200160038201548152602001600482015481526020016005820160009054906101000a900460ff16151515158152505090508060a00151610b2b576040517f08c379a0000000000000000000000000000000000000000000000000000000008152600401610b229061196d565b60405180910390fd5b8060400151341015610b72576040517f08c379a0000000000000000000000000000000000000000000000000000000008152600401610b69906119d9565b60405180910390fd5b8173ffffffffffffffffffffffffffffffffffffffff166108fc349081150290604051600060405180830381858888f19350505050158015610bb8573d6000803e3d6000fd5b50600260405180608001604052803373ffffffffffffffffffffffffffffffffffffffff1681526020018473ffffffffffffffffffffffffffffffffffffffff16815260200142815260200160001515815250908060018154018082558091505060019003906000526020600020906004020160009091909190915060008201518160000160006101000a81548173ffffffffffffffffffffffffffffffffffffffff021916908373ffffffffffffffffffffffffffffffffffffffff16021790555060208201518160010160006101000a81548173ffffffffffffffffffffffffffffffffffffffff021916908373ffffffffffffffffffffffffffffffffffffffff1602179055506040820151816002015560608201518160030160006101000a81548160ff02191690831515021790555050508173ffffffffffffffffffffffffffffffffffffffff163373ffffffffffffffffffffffffffffffffffffffff167f33ddeb841fa5435a07e966f79583e89649545faa69ca8b27818032f87a2d0f156001600280549050610d4f91906119f9565b604051610d5c9190611a2d565b60405180910390a35050565b6040518060c00160405280600073ffffffffffffffffffffffffffffffffffffffff168152602001606081526020016000815260200160008152602001600081526020016000151581525090565b6000604051905090565b600080fd5b600080fd5b600073ffffffffffffffffffffffffffffffffffffffff82169050919050565b6000610df582610dca565b9050919050565b610e0581610dea565b8114610e1057600080fd5b50565b600081359050610e2281610dfc565b92915050565b600060208284031215610e3e57610e3d610dc0565b5b6000610e4c84828501610e13565b91505092915050565b610e5e81610dea565b82525050565b600081519050919050565b600082825260208201905092915050565b60005b83811015610e9e578082015181840152602081019050610e83565b60008484015250505050565b6000601f19601f8301169050919050565b6000610ec682610e64565b610ed08185610e6f565b9350610ee0818560208601610e80565b610ee981610eaa565b840191505092915050565b6000819050919050565b610f0781610ef4565b82525050565b60008115159050919050565b610f2281610f0d565b82525050565b600060c082019050610f3d6000830189610e55565b8181036020830152610f4f8188610ebb565b9050610f5e6040830187610efe565b610f6b6060830186610efe565b610f786080830185610efe565b610f8560a0830184610f19565b979650505050505050565b610f9981610ef4565b8114610fa457600080fd5b50565b600081359050610fb681610f90565b92915050565b600060208284031215610fd257610fd1610dc0565b5b6000610fe084828501610fa7565b91505092915050565b6000602082019050610ffe6000830184610e55565b92915050565b600060ff82169050919050565b61101a81611004565b811461102557600080fd5b50565b60008135905061103781611011565b92915050565b6000806040838503121561105457611053610dc0565b5b600061106285828601610e13565b925050602061107385828601611028565b9150509250929050565b60006080820190506110926000830187610e55565b61109f6020830186610e55565b6110ac6040830185610efe565b6110b96060830184610f19565b95945050505050565b600081519050919050565b600082825260208201905092915050565b6000819050602082019050919050565b6110f781610dea565b82525050565b600082825260208201905092915050565b600061111982610e64565b61112381856110fd565b9350611133818560208601610e80565b61113c81610eaa565b840191505092915050565b61115081610ef4565b82525050565b61115f81610f0d565b82525050565b600060c08301600083015161117d60008601826110ee565b5060208301518482036020860152611195828261110e565b91505060408301516111aa6040860182611147565b5060608301516111bd6060860182611147565b5060808301516111d06080860182611147565b5060a08301516111e360a0860182611156565b508091505092915050565b60006111fa8383611165565b905092915050565b6000602082019050919050565b600061121a826110c2565b61122481856110cd565b935083602082028501611236856110de565b8060005b85811015611272578484038952815161125385826111ee565b945061125e83611202565b925060208a0199505060018101905061123a565b50829750879550505050505092915050565b6000602082019050818103600083015261129e818461120f565b905092915050565b600080fd5b600080fd5b7f4e487b7100000000000000000000000000000000000000000000000000000000600052604160045260246000fd5b6112e882610eaa565b810181811067ffffffffffffffff82111715611307576113066112b0565b5b80604052505050565b600061131a610db6565b905061132682826112df565b919050565b600067ffffffffffffffff821115611346576113456112b0565b5b61134f82610eaa565b9050602081019050919050565b82818337600083830152505050565b600061137e6113798461132b565b611310565b90508281526020810184848401111561139a576113996112ab565b5b6113a584828561135c565b509392505050565b600082601f8301126113c2576113c16112a6565b5b81356113d284826020860161136b565b91505092915050565b600080604083850312156113f2576113f1610dc0565b5b600083013567ffffffffffffffff8111156114105761140f610dc5565b5b61141c858286016113ad565b925050602061142d85828601610fa7565b9150509250929050565b7f4e487b7100000000000000000000000000000000000000000000000000000000600052602260045260246000fd5b6000600282049050600182168061147e57607f821691505b60208210810361149157611490611437565b5b50919050565b7f526174696e67206d75737420626520312d350000000000000000000000000000600082015250565b60006114cd601283610e6f565b91506114d882611497565b602082019050919050565b600060208201905081810360008301526114fc816114c0565b9050919050565b7f4e487b7100000000000000000000000000000000000000000000000000000000600052601160045260246000fd5b600061153d82610ef4565b91507fffffffffffffffffffffffffffffffffffffffffffffffffffffffffffffffff820361156f5761156e611503565b5b600182019050919050565b600061158582610ef4565b915061159083610ef4565b92508282019050808211156115a8576115a7611503565b5b92915050565b6115b781611004565b82525050565b60006020820190506115d260008301846115ae565b92915050565b7f4e487b7100000000000000000000000000000000000000000000000000000000600052603260045260246000fd5b7f416c726561647920726567697374657265640000000000000000000000000000600082015250565b600061163d601283610e6f565b915061164882611607565b602082019050919050565b6000602082019050818103600083015261166c81611630565b9050919050565b60008190508160005260206000209050919050565b60006020601f8301049050919050565b600082821b905092915050565b6000600883026116d57fffffffffffffffffffffffffffffffffffffffffffffffffffffffffffffffff82611698565b6116df8683611698565b95508019841693508086168417925050509392505050565b6000819050919050565b600061171c61171761171284610ef4565b6116f7565b610ef4565b9050919050565b6000819050919050565b61173683611701565b61174a61174282611723565b8484546116a5565b825550505050565b600090565b61175f611752565b61176a81848461172d565b505050565b5b8181101561178e57611783600082611757565b600181019050611770565b5050565b601f8211156117d3576117a481611673565b6117ad84611688565b810160208510156117bc578190505b6117d06117c885611688565b83018261176f565b50505b505050565b600082821c905092915050565b60006117f6600019846008026117d8565b1980831691505092915050565b600061180f83836117e5565b9150826002028217905092915050565b61182882610e64565b67ffffffffffffffff811115611841576118406112b0565b5b61184b8254611466565b611856828285611792565b600060209050601f8311600181146118895760008415611877578287015190505b6118818582611803565b8655506118e9565b601f19841661189786611673565b60005b828110156118bf5784890151825560018201915060208501945060208101905061189a565b868310156118dc57848901516118d8601f8916826117e5565b8355505b6001600288020188555050505b505050505050565b6000604082019050818103600083015261190b8185610ebb565b905061191a6020830184610efe565b9392505050565b7f417374726f6c6f676572206e6f74206163746976650000000000000000000000600082015250565b6000611957601583610e6f565b915061196282611921565b602082019050919050565b600060208201905081810360008301526119868161194a565b9050919050565b7f496e73756666696369656e74207061796d656e74000000000000000000000000600082015250565b60006119c3601483610e6f565b91506119ce8261198d565b602082019050919050565b600060208201905081810360008301526119f2816119b6565b9050919050565b6000611a0482610ef4565b9150611a0f83610ef4565b9250828203905081811115611a2757611a26611503565b5b92915050565b6000602082019050611a426000830184610efe565b9291505056fea26469706673582212205537295278ed9d7ceabb737fac5314ca6c5f72003bf5f8bd9ebb61ae954927fb64736f6c63430008180033",
  "linkReferences": {},
  "deployedLinkReferences": {}
}